{
    "contractName": "WimeSecure",
    "abi": [
        {
            "inputs": [
                {
                    "internalType": "string",
                    "name": "_vaultPassword",
                    "type": "string"
                }
            ],
            "stateMutability": "nonpayable",
            "type": "constructor"
        },
        {
            "inputs": [],
            "name": "getOwnerAddress",
            "outputs": [
                {
                    "internalType": "address",
                    "name": "",
                    "type": "address"
                }
            ],
            "stateMutability": "view",
            "type": "function"
        },
        {
            "inputs": [],
            "name": "getVaultPassword",
            "outputs": [
                {
                    "internalType": "string",
                    "name": "",
                    "type": "string"
                }
            ],
            "stateMutability": "view",
            "type": "function"
        },
        {
            "inputs": [],
            "name": "isOwner",
            "outputs": [
                {
                    "internalType": "bool",
                    "name": "",
                    "type": "bool"
                }
            ],
            "stateMutability": "view",
            "type": "function"
        },
        {
            "inputs": [],
            "name": "verifyValidatorsAuth",
            "outputs": [
                {
                    "internalType": "bool",
                    "name": "",
                    "type": "bool"
                }
            ],
            "stateMutability": "view",
            "type": "function"
        }
    ],
    "bytecode": "608060405234801561001057600080fd5b5060405161052d38038061052d83398101604081905261002f9161006a565b600061003b82826101bc565b5050600380546001600160a01b0319163317905561027b565b634e487b7160e01b600052604160045260246000fd5b6000602080838503121561007d57600080fd5b82516001600160401b038082111561009457600080fd5b818501915085601f8301126100a857600080fd5b8151818111156100ba576100ba610054565b604051601f8201601f19908116603f011681019083821181831017156100e2576100e2610054565b8160405282815288868487010111156100fa57600080fd5b600093505b8284101561011c57848401860151818501870152928501926100ff565b600086848301015280965050505050505092915050565b600181811c9082168061014757607f821691505b60208210810361016757634e487b7160e01b600052602260045260246000fd5b50919050565b601f8211156101b757600081815260208120601f850160051c810160208610156101945750805b601f850160051c820191505b818110156101b3578281556001016101a0565b5050505b505050565b81516001600160401b038111156101d5576101d5610054565b6101e9816101e38454610133565b8461016d565b602080601f83116001811461021e57600084156102065750858301515b600019600386901b1c1916600185901b1785556101b3565b600085815260208120601f198616915b8281101561024d5788860151825594840194600190910190840161022e565b508582101561026b5787850151600019600388901b60f8161c191681555b5050505050600190811b01905550565b6102a38061028a6000396000f3fe608060405234801561001057600080fd5b506004361061004c5760003560e01c806305d55141146100515780630c4f65bd1461006f5780638f32d59b1461008a57806398d44449146100a9575b600080fd5b6100596100b1565b60405161006691906101a8565b60405180910390f35b6003546040516001600160a01b039091168152602001610066565b6003546001600160a01b031633145b6040519015158152602001610066565b610099610143565b6060600080546100c0906101f6565b80601f01602080910402602001604051908101604052809291908181526020018280546100ec906101f6565b80156101395780601f1061010e57610100808354040283529160200191610139565b820191906000526020600020905b81548152906001019060200180831161011c57829003601f168201915b5050505050905090565b6000805b6001548110156101a0576001818154811061016457610164610230565b600091825260208083203384529091019052604081205460ff161515900361018e57600091505090565b8061019881610246565b915050610147565b506001905090565b600060208083528351808285015260005b818110156101d5578581018301518582016040015282016101b9565b506000604082860101526040601f19601f8301168501019250505092915050565b600181811c9082168061020a57607f821691505b60208210810361022a57634e487b7160e01b600052602260045260246000fd5b50919050565b634e487b7160e01b600052603260045260246000fd5b60006001820161026657634e487b7160e01b600052601160045260246000fd5b506001019056fea2646970667358221220199ae1cec3cd6c894b6400504636f702b072a23d9cad7b4e76703022e945ea2464736f6c63430008110033",
    "sourcePath": "c:/DevProjects/wime/smart_contract/contracts/WimeSecure.sol",
    "compiler": {
        "name": "solc",
        "version": "0.8.17+commit.8df45f5f"
    },
    "functionHashes": {
        "getOwnerAddress()": "0c4f65bd",
        "getVaultPassword()": "05d55141",
        "isOwner()": "8f32d59b",
        "verifyValidatorsAuth()": "98d44449"
    },
    "gasEstimates": {
        "creation": {
            "codeDepositCost": "135000",
            "executionCost": "infinite",
            "totalCost": "infinite"
        },
        "external": {
            "getOwnerAddress()": "2301",
            "getVaultPassword()": "infinite",
            "isOwner()": "2332",
            "verifyValidatorsAuth()": "infinite"
        },
        "internal": {
            "requestMultiSigFromValidators()": "infinite"
        }
    }
}