{
  "_format": "hh-sol-artifact-1",
  "contractName": "Will",
  "sourceName": "contracts/Will.sol",
  "abi": [
    {
      "inputs": [
        {
          "internalType": "address payable",
          "name": "_clientPubKey",
          "type": "address"
        },
        {
          "internalType": "address payable",
          "name": "_beneficiaryPubKey",
          "type": "address"
        },
        {
          "internalType": "uint256",
          "name": "_beneficiaryDistribution",
          "type": "uint256"
        },
        {
          "internalType": "uint256",
          "name": "_endowment",
          "type": "uint256"
        }
      ],
      "stateMutability": "payable",
      "type": "constructor"
    },
    {
      "inputs": [],
      "name": "beneficiary",
      "outputs": [
        {
          "internalType": "address payable",
          "name": "pubKey",
          "type": "address"
        },
        {
          "internalType": "uint256",
          "name": "distribution",
          "type": "uint256"
        }
      ],
      "stateMutability": "view",
      "type": "function"
    },
    {
      "inputs": [],
      "name": "client",
      "outputs": [
        {
          "internalType": "address payable",
          "name": "pubKey",
          "type": "address"
        }
      ],
      "stateMutability": "view",
      "type": "function"
    },
    {
      "inputs": [
        {
          "internalType": "uint256",
          "name": "clientBalance",
          "type": "uint256"
        }
      ],
      "name": "distributeAssets",
      "outputs": [],
      "stateMutability": "payable",
      "type": "function"
    },
    {
      "inputs": [],
      "name": "getBalance",
      "outputs": [
        {
          "internalType": "uint256",
          "name": "",
          "type": "uint256"
        }
      ],
      "stateMutability": "view",
      "type": "function"
    },
    {
      "inputs": [],
      "name": "getBeneficiary",
      "outputs": [
        {
          "internalType": "address",
          "name": "",
          "type": "address"
        }
      ],
      "stateMutability": "view",
      "type": "function"
    },
    {
      "inputs": [
        {
          "internalType": "address",
          "name": "",
          "type": "address"
        }
      ],
      "name": "isDistributed",
      "outputs": [
        {
          "internalType": "bool",
          "name": "",
          "type": "bool"
        }
      ],
      "stateMutability": "view",
      "type": "function"
    }
  ],
  "bytecode": "0x608060405260405162000d0b38038062000d0b8339818101604052810190620000299190620001ae565b8034146200006e576040517f08c379a00000000000000000000000000000000000000000000000000000000081526004016200006590620002a7565b60405180910390fd5b83600260000160006101000a81548173ffffffffffffffffffffffffffffffffffffffff021916908373ffffffffffffffffffffffffffffffffffffffff160217905550826000800160006101000a81548173ffffffffffffffffffffffffffffffffffffffff021916908373ffffffffffffffffffffffffffffffffffffffff1602179055508160006001018190555050505050620002c9565b600080fd5b600073ffffffffffffffffffffffffffffffffffffffff82169050919050565b60006200013b826200010e565b9050919050565b6200014d816200012e565b81146200015957600080fd5b50565b6000815190506200016d8162000142565b92915050565b6000819050919050565b620001888162000173565b81146200019457600080fd5b50565b600081519050620001a8816200017d565b92915050565b60008060008060808587031215620001cb57620001ca62000109565b5b6000620001db878288016200015c565b9450506020620001ee878288016200015c565b9350506040620002018782880162000197565b9250506060620002148782880162000197565b91505092959194509250565b600082825260208201905092915050565b7f5468652065746865722073656e742073686f756c64206265207468652073616d60008201527f6520617320706172616d657465722073656e7421000000000000000000000000602082015250565b60006200028f60348362000220565b91506200029c8262000231565b604082019050919050565b60006020820190508181036000830152620002c28162000280565b9050919050565b610a3280620002d96000396000f3fe6080604052600436106100555760003560e01c8063109e94cf1461005a57806312065fe01461008557806338af3eed146100b05780633ebf6474146100dc578063499d391814610119578063565a2e2c14610135575b600080fd5b34801561006657600080fd5b5061006f610160565b60405161007c9190610548565b60405180910390f35b34801561009157600080fd5b5061009a61018c565b6040516100a7919061057c565b60405180910390f35b3480156100bc57600080fd5b506100c5610194565b6040516100d3929190610597565b60405180910390f35b3480156100e857600080fd5b5061010360048036038101906100fe9190610603565b6101c6565b604051610110919061064b565b60405180910390f35b610133600480360381019061012e9190610692565b6101e6565b005b34801561014157600080fd5b5061014a610410565b60405161015791906106ce565b60405180910390f35b60028060000160009054906101000a900473ffffffffffffffffffffffffffffffffffffffff16905081565b600047905090565b60008060000160009054906101000a900473ffffffffffffffffffffffffffffffffffffffff16908060010154905082565b60036020528060005260406000206000915054906101000a900460ff1681565b803414610228576040517f08c379a000000000000000000000000000000000000000000000000000000000815260040161021f9061076c565b60405180910390fd5b600060643460006001015461023d91906107bb565b6102479190610844565b90506001600360008060000160009054906101000a900473ffffffffffffffffffffffffffffffffffffffff1673ffffffffffffffffffffffffffffffffffffffff1673ffffffffffffffffffffffffffffffffffffffff16815260200190815260200160002060006101000a81548160ff021916908315150217905550600073ffffffffffffffffffffffffffffffffffffffff166000800160009054906101000a900473ffffffffffffffffffffffffffffffffffffffff1673ffffffffffffffffffffffffffffffffffffffff161415610359576040517f08c379a0000000000000000000000000000000000000000000000000000000008152600401610350906108e7565b60405180910390fd5b6103a16040518060600160405280602181526020016109dc60219139336000800160009054906101000a900473ffffffffffffffffffffffffffffffffffffffff168461043c565b6000800160009054906101000a900473ffffffffffffffffffffffffffffffffffffffff1673ffffffffffffffffffffffffffffffffffffffff166108fc829081150290604051600060405180830381858888f1935050505015801561040b573d6000803e3d6000fd5b505050565b60008060000160009054906101000a900473ffffffffffffffffffffffffffffffffffffffff16905090565b6104d884848484604051602401610456949392919061098f565b6040516020818303038152906040527f8ef3f399000000000000000000000000000000000000000000000000000000007bffffffffffffffffffffffffffffffffffffffffffffffffffffffff19166020820180517bffffffffffffffffffffffffffffffffffffffffffffffffffffffff83818316178352505050506104de565b50505050565b60008151905060006a636f6e736f6c652e6c6f679050602083016000808483855afa5050505050565b600073ffffffffffffffffffffffffffffffffffffffff82169050919050565b600061053282610507565b9050919050565b61054281610527565b82525050565b600060208201905061055d6000830184610539565b92915050565b6000819050919050565b61057681610563565b82525050565b6000602082019050610591600083018461056d565b92915050565b60006040820190506105ac6000830185610539565b6105b9602083018461056d565b9392505050565b600080fd5b60006105d082610507565b9050919050565b6105e0816105c5565b81146105eb57600080fd5b50565b6000813590506105fd816105d7565b92915050565b600060208284031215610619576106186105c0565b5b6000610627848285016105ee565b91505092915050565b60008115159050919050565b61064581610630565b82525050565b6000602082019050610660600083018461063c565b92915050565b61066f81610563565b811461067a57600080fd5b50565b60008135905061068c81610666565b92915050565b6000602082840312156106a8576106a76105c0565b5b60006106b68482850161067d565b91505092915050565b6106c8816105c5565b82525050565b60006020820190506106e360008301846106bf565b92915050565b600082825260208201905092915050565b7f5468652065746865722073656e742073686f756c64206265207468652073616d60008201527f6520617320706172616d657465722073656e7421000000000000000000000000602082015250565b60006107566034836106e9565b9150610761826106fa565b604082019050919050565b6000602082019050818103600083015261078581610749565b9050919050565b7f4e487b7100000000000000000000000000000000000000000000000000000000600052601160045260246000fd5b60006107c682610563565b91506107d183610563565b9250817fffffffffffffffffffffffffffffffffffffffffffffffffffffffffffffffff048311821515161561080a5761080961078c565b5b828202905092915050565b7f4e487b7100000000000000000000000000000000000000000000000000000000600052601260045260246000fd5b600061084f82610563565b915061085a83610563565b92508261086a57610869610815565b5b828204905092915050565b7f42656e65666963696172792061646472657373206d757374206265206120766160008201527f6c69642061646472657373000000000000000000000000000000000000000000602082015250565b60006108d1602b836106e9565b91506108dc82610875565b604082019050919050565b60006020820190508181036000830152610900816108c4565b9050919050565b600081519050919050565b60005b83811015610930578082015181840152602081019050610915565b8381111561093f576000848401525b50505050565b6000601f19601f8301169050919050565b600061096182610907565b61096b81856106e9565b935061097b818560208601610912565b61098481610945565b840191505092915050565b600060808201905081810360008301526109a98187610956565b90506109b860208301866106bf565b6109c560408301856106bf565b6109d2606083018461056d565b9594505050505056fe5472616e7366657272696e672066726f6d20257320746f20257320257320776569a264697066735822122019fe09d3fdeabf6e8d92406d89ccb6d4bfb701d1775c2051b8109346888cd20664736f6c63430008090033",
  "linkReferences": {},
  "deployedLinkReferences": {}
}