{
  "_format": "hh-sol-artifact-1",
  "contractName": "Will",
  "sourceName": "contracts/Will.sol",
  "abi": [
    {
      "inputs": [
        {
          "internalType": "address payable",
          "name": "_ownerPubKey",
          "type": "address"
        },
        {
          "internalType": "address payable",
          "name": "_beneficiaryPubKey",
          "type": "address"
        },
        {
          "internalType": "uint256",
          "name": "_beneficiaryDistribution",
          "type": "uint256"
        },
        {
          "internalType": "uint256",
          "name": "_endowment",
          "type": "uint256"
        }
      ],
      "stateMutability": "payable",
      "type": "constructor"
    },
    {
      "inputs": [],
      "name": "beneficiary",
      "outputs": [
        {
          "internalType": "address payable",
          "name": "pubKey",
          "type": "address"
        },
        {
          "internalType": "uint256",
          "name": "distribution",
          "type": "uint256"
        }
      ],
      "stateMutability": "view",
      "type": "function"
    },
    {
      "inputs": [
        {
          "internalType": "uint256",
          "name": "ownerBalance",
          "type": "uint256"
        }
      ],
      "name": "distributeAssets",
      "outputs": [],
      "stateMutability": "payable",
      "type": "function"
    },
    {
      "inputs": [],
      "name": "getBalance",
      "outputs": [
        {
          "internalType": "uint256",
          "name": "",
          "type": "uint256"
        }
      ],
      "stateMutability": "view",
      "type": "function"
    },
    {
      "inputs": [],
      "name": "getBeneficiary",
      "outputs": [
        {
          "internalType": "address",
          "name": "",
          "type": "address"
        }
      ],
      "stateMutability": "view",
      "type": "function"
    },
    {
      "inputs": [
        {
          "internalType": "address",
          "name": "",
          "type": "address"
        }
      ],
      "name": "isDistributed",
      "outputs": [
        {
          "internalType": "bool",
          "name": "",
          "type": "bool"
        }
      ],
      "stateMutability": "view",
      "type": "function"
    },
    {
      "inputs": [],
      "name": "owner",
      "outputs": [
        {
          "internalType": "address payable",
          "name": "pubKey",
          "type": "address"
        }
      ],
      "stateMutability": "view",
      "type": "function"
    }
  ],
  "bytecode": "0x608060405260405162000e0a38038062000e0a8339818101604052810190620000299190620001ae565b8034146200006e576040517f08c379a00000000000000000000000000000000000000000000000000000000081526004016200006590620002a7565b60405180910390fd5b83600260000160006101000a81548173ffffffffffffffffffffffffffffffffffffffff021916908373ffffffffffffffffffffffffffffffffffffffff160217905550826000800160006101000a81548173ffffffffffffffffffffffffffffffffffffffff021916908373ffffffffffffffffffffffffffffffffffffffff1602179055508160006001018190555050505050620002c9565b600080fd5b600073ffffffffffffffffffffffffffffffffffffffff82169050919050565b60006200013b826200010e565b9050919050565b6200014d816200012e565b81146200015957600080fd5b50565b6000815190506200016d8162000142565b92915050565b6000819050919050565b620001888162000173565b81146200019457600080fd5b50565b600081519050620001a8816200017d565b92915050565b60008060008060808587031215620001cb57620001ca62000109565b5b6000620001db878288016200015c565b9450506020620001ee878288016200015c565b9350506040620002018782880162000197565b9250506060620002148782880162000197565b91505092959194509250565b600082825260208201905092915050565b7f5468652065746865722073656e742073686f756c64206265207468652073616d60008201527f6520617320706172616d657465722073656e7421000000000000000000000000602082015250565b60006200028f60348362000220565b91506200029c8262000231565b604082019050919050565b60006020820190508181036000830152620002c28162000280565b9050919050565b610b3180620002d96000396000f3fe6080604052600436106100555760003560e01c806312065fe01461005a57806338af3eed146100855780633ebf6474146100b1578063499d3918146100ee578063565a2e2c1461010a5780638da5cb5b14610135575b600080fd5b34801561006657600080fd5b5061006f610160565b60405161007c91906105b3565b60405180910390f35b34801561009157600080fd5b5061009a610168565b6040516100a892919061060f565b60405180910390f35b3480156100bd57600080fd5b506100d860048036038101906100d3919061067b565b61019a565b6040516100e591906106c3565b60405180910390f35b6101086004803603810190610103919061070a565b6101ba565b005b34801561011657600080fd5b5061011f610477565b60405161012c9190610746565b60405180910390f35b34801561014157600080fd5b5061014a6104a3565b6040516101579190610761565b60405180910390f35b600047905090565b60008060000160009054906101000a900473ffffffffffffffffffffffffffffffffffffffff16908060010154905082565b60036020528060005260406000206000915054906101000a900460ff1681565b600260000160009054906101000a900473ffffffffffffffffffffffffffffffffffffffff1673ffffffffffffffffffffffffffffffffffffffff163373ffffffffffffffffffffffffffffffffffffffff161461024d576040517f08c379a0000000000000000000000000000000000000000000000000000000008152600401610244906107d9565b60405180910390fd5b80341461028f576040517f08c379a00000000000000000000000000000000000000000000000000000000081526004016102869061086b565b60405180910390fd5b60006064346000600101546102a491906108ba565b6102ae9190610943565b90506001600360008060000160009054906101000a900473ffffffffffffffffffffffffffffffffffffffff1673ffffffffffffffffffffffffffffffffffffffff1673ffffffffffffffffffffffffffffffffffffffff16815260200190815260200160002060006101000a81548160ff021916908315150217905550600073ffffffffffffffffffffffffffffffffffffffff166000800160009054906101000a900473ffffffffffffffffffffffffffffffffffffffff1673ffffffffffffffffffffffffffffffffffffffff1614156103c0576040517f08c379a00000000000000000000000000000000000000000000000000000000081526004016103b7906109e6565b60405180910390fd5b610408604051806060016040528060218152602001610adb60219139336000800160009054906101000a900473ffffffffffffffffffffffffffffffffffffffff16846104cf565b6000800160009054906101000a900473ffffffffffffffffffffffffffffffffffffffff1673ffffffffffffffffffffffffffffffffffffffff166108fc829081150290604051600060405180830381858888f19350505050158015610472573d6000803e3d6000fd5b505050565b60008060000160009054906101000a900473ffffffffffffffffffffffffffffffffffffffff16905090565b60028060000160009054906101000a900473ffffffffffffffffffffffffffffffffffffffff16905081565b61056b848484846040516024016104e99493929190610a8e565b6040516020818303038152906040527f8ef3f399000000000000000000000000000000000000000000000000000000007bffffffffffffffffffffffffffffffffffffffffffffffffffffffff19166020820180517bffffffffffffffffffffffffffffffffffffffffffffffffffffffff8381831617835250505050610571565b50505050565b60008151905060006a636f6e736f6c652e6c6f679050602083016000808483855afa5050505050565b6000819050919050565b6105ad8161059a565b82525050565b60006020820190506105c860008301846105a4565b92915050565b600073ffffffffffffffffffffffffffffffffffffffff82169050919050565b60006105f9826105ce565b9050919050565b610609816105ee565b82525050565b60006040820190506106246000830185610600565b61063160208301846105a4565b9392505050565b600080fd5b6000610648826105ce565b9050919050565b6106588161063d565b811461066357600080fd5b50565b6000813590506106758161064f565b92915050565b60006020828403121561069157610690610638565b5b600061069f84828501610666565b91505092915050565b60008115159050919050565b6106bd816106a8565b82525050565b60006020820190506106d860008301846106b4565b92915050565b6106e78161059a565b81146106f257600080fd5b50565b600081359050610704816106de565b92915050565b6000602082840312156107205761071f610638565b5b600061072e848285016106f5565b91505092915050565b6107408161063d565b82525050565b600060208201905061075b6000830184610737565b92915050565b60006020820190506107766000830184610600565b92915050565b600082825260208201905092915050565b7f596f75206172656e277420746865206f776e6572000000000000000000000000600082015250565b60006107c360148361077c565b91506107ce8261078d565b602082019050919050565b600060208201905081810360008301526107f2816107b6565b9050919050565b7f5468652065746865722073656e742073686f756c64206265207468652073616d60008201527f6520617320706172616d657465722073656e7421000000000000000000000000602082015250565b600061085560348361077c565b9150610860826107f9565b604082019050919050565b6000602082019050818103600083015261088481610848565b9050919050565b7f4e487b7100000000000000000000000000000000000000000000000000000000600052601160045260246000fd5b60006108c58261059a565b91506108d08361059a565b9250817fffffffffffffffffffffffffffffffffffffffffffffffffffffffffffffffff04831182151516156109095761090861088b565b5b828202905092915050565b7f4e487b7100000000000000000000000000000000000000000000000000000000600052601260045260246000fd5b600061094e8261059a565b91506109598361059a565b92508261096957610968610914565b5b828204905092915050565b7f42656e65666963696172792061646472657373206d757374206265206120766160008201527f6c69642061646472657373000000000000000000000000000000000000000000602082015250565b60006109d0602b8361077c565b91506109db82610974565b604082019050919050565b600060208201905081810360008301526109ff816109c3565b9050919050565b600081519050919050565b60005b83811015610a2f578082015181840152602081019050610a14565b83811115610a3e576000848401525b50505050565b6000601f19601f8301169050919050565b6000610a6082610a06565b610a6a818561077c565b9350610a7a818560208601610a11565b610a8381610a44565b840191505092915050565b60006080820190508181036000830152610aa88187610a55565b9050610ab76020830186610737565b610ac46040830185610737565b610ad160608301846105a4565b9594505050505056fe5472616e7366657272696e672066726f6d20257320746f20257320257320776569a264697066735822122024aaea0c7059e0128cecbae0184ffda7ee2cde4ae2aebb3098231e89fd9565a764736f6c63430008090033",
  "linkReferences": {},
  "deployedLinkReferences": {}
}