{
  "_format": "hh-sol-artifact-1",
  "contractName": "Will",
  "sourceName": "contracts/Will.sol",
  "abi": [
    {
      "inputs": [
        {
          "internalType": "address payable",
          "name": "_ownerPubKey",
          "type": "address"
        },
        {
          "internalType": "address payable",
          "name": "_beneficiaryPubKey",
          "type": "address"
        },
        {
          "internalType": "uint256",
          "name": "_beneficiaryDistribution",
          "type": "uint256"
        },
        {
          "internalType": "uint256",
          "name": "_endowment",
          "type": "uint256"
        },
        {
          "internalType": "address[]",
          "name": "_validatorAddresses",
          "type": "address[]"
        }
      ],
      "stateMutability": "payable",
      "type": "constructor"
    },
    {
      "inputs": [
        {
          "internalType": "address",
          "name": "",
          "type": "address"
        }
      ],
      "name": "authorizedAddressesForMultiSig",
      "outputs": [
        {
          "internalType": "bool",
          "name": "",
          "type": "bool"
        }
      ],
      "stateMutability": "view",
      "type": "function"
    },
    {
      "inputs": [],
      "name": "beneficiary",
      "outputs": [
        {
          "internalType": "address payable",
          "name": "pubKey",
          "type": "address"
        },
        {
          "internalType": "uint256",
          "name": "distribution",
          "type": "uint256"
        }
      ],
      "stateMutability": "view",
      "type": "function"
    },
    {
      "inputs": [
        {
          "internalType": "uint256",
          "name": "ownerBalance",
          "type": "uint256"
        }
      ],
      "name": "distributeAssets",
      "outputs": [],
      "stateMutability": "payable",
      "type": "function"
    },
    {
      "inputs": [],
      "name": "getBalance",
      "outputs": [
        {
          "internalType": "uint256",
          "name": "",
          "type": "uint256"
        }
      ],
      "stateMutability": "view",
      "type": "function"
    },
    {
      "inputs": [],
      "name": "getBeneficiary",
      "outputs": [
        {
          "internalType": "address",
          "name": "",
          "type": "address"
        }
      ],
      "stateMutability": "view",
      "type": "function"
    },
    {
      "inputs": [],
      "name": "getValidators",
      "outputs": [
        {
          "internalType": "address[]",
          "name": "",
          "type": "address[]"
        }
      ],
      "stateMutability": "view",
      "type": "function"
    },
    {
      "inputs": [
        {
          "internalType": "address",
          "name": "",
          "type": "address"
        }
      ],
      "name": "isDistributed",
      "outputs": [
        {
          "internalType": "bool",
          "name": "",
          "type": "bool"
        }
      ],
      "stateMutability": "view",
      "type": "function"
    },
    {
      "inputs": [],
      "name": "owner",
      "outputs": [
        {
          "internalType": "address payable",
          "name": "pubKey",
          "type": "address"
        }
      ],
      "stateMutability": "view",
      "type": "function"
    },
    {
      "inputs": [],
      "name": "validate",
      "outputs": [],
      "stateMutability": "payable",
      "type": "function"
    }
  ],
  "bytecode": "0x608060405260405162001bac38038062001bac8339818101604052810190620000299190620004d8565b8134146200006e576040517f08c379a0000000000000000000000000000000000000000000000000000000008152600401620000659062000606565b60405180910390fd5b84600460000160006101000a81548173ffffffffffffffffffffffffffffffffffffffff021916908373ffffffffffffffffffffffffffffffffffffffff16021790555083600260000160006101000a81548173ffffffffffffffffffffffffffffffffffffffff021916908373ffffffffffffffffffffffffffffffffffffffff1602179055508260026001018190555060005b81518110156200019757600080600084848151811062000128576200012762000628565b5b602002602001015173ffffffffffffffffffffffffffffffffffffffff1673ffffffffffffffffffffffffffffffffffffffff16815260200190815260200160002060006101000a81548160ff02191690831515021790555080806200018e9062000686565b91505062000103565b508060019080519060200190620001b0929190620001bc565b505050505050620006d4565b82805482825590600052602060002090810192821562000238579160200282015b82811115620002375782518260006101000a81548173ffffffffffffffffffffffffffffffffffffffff021916908373ffffffffffffffffffffffffffffffffffffffff16021790555091602001919060010190620001dd565b5b5090506200024791906200024b565b5090565b5b80821115620002665760008160009055506001016200024c565b5090565b6000604051905090565b600080fd5b600080fd5b600073ffffffffffffffffffffffffffffffffffffffff82169050919050565b6000620002ab826200027e565b9050919050565b620002bd816200029e565b8114620002c957600080fd5b50565b600081519050620002dd81620002b2565b92915050565b6000819050919050565b620002f881620002e3565b81146200030457600080fd5b50565b6000815190506200031881620002ed565b92915050565b600080fd5b6000601f19601f8301169050919050565b7f4e487b7100000000000000000000000000000000000000000000000000000000600052604160045260246000fd5b6200036e8262000323565b810181811067ffffffffffffffff8211171562000390576200038f62000334565b5b80604052505050565b6000620003a56200026a565b9050620003b3828262000363565b919050565b600067ffffffffffffffff821115620003d657620003d562000334565b5b602082029050602081019050919050565b600080fd5b6000620003f9826200027e565b9050919050565b6200040b81620003ec565b81146200041757600080fd5b50565b6000815190506200042b8162000400565b92915050565b6000620004486200044284620003b8565b62000399565b905080838252602082019050602084028301858111156200046e576200046d620003e7565b5b835b818110156200049b57806200048688826200041a565b84526020840193505060208101905062000470565b5050509392505050565b600082601f830112620004bd57620004bc6200031e565b5b8151620004cf84826020860162000431565b91505092915050565b600080600080600060a08688031215620004f757620004f662000274565b5b60006200050788828901620002cc565b95505060206200051a88828901620002cc565b94505060406200052d8882890162000307565b9350506060620005408882890162000307565b925050608086015167ffffffffffffffff81111562000564576200056362000279565b5b6200057288828901620004a5565b9150509295509295909350565b600082825260208201905092915050565b7f5468652065746865722073656e742073686f756c64206265207468652073616d60008201527f6520617320706172616d657465722073656e7421000000000000000000000000602082015250565b6000620005ee6034836200057f565b9150620005fb8262000590565b604082019050919050565b600060208201905081810360008301526200062181620005df565b9050919050565b7f4e487b7100000000000000000000000000000000000000000000000000000000600052603260045260246000fd5b7f4e487b7100000000000000000000000000000000000000000000000000000000600052601160045260246000fd5b60006200069382620002e3565b91507fffffffffffffffffffffffffffffffffffffffffffffffffffffffffffffffff821415620006c957620006c862000657565b5b600182019050919050565b6114c880620006e46000396000f3fe6080604052600436106100865760003560e01c8063565a2e2c11610059578063565a2e2c1461013b5780636901f66814610166578063878a8d54146101705780638da5cb5b146101ad578063b7ab4db5146101d857610086565b806312065fe01461008b57806338af3eed146100b65780633ebf6474146100e2578063499d39181461011f575b600080fd5b34801561009757600080fd5b506100a0610203565b6040516100ad9190610bd7565b60405180910390f35b3480156100c257600080fd5b506100cb61020b565b6040516100d9929190610c33565b60405180910390f35b3480156100ee57600080fd5b5061010960048036038101906101049190610c9f565b61023d565b6040516101169190610ce7565b60405180910390f35b61013960048036038101906101349190610d2e565b61025d565b005b34801561014757600080fd5b50610150610613565b60405161015d9190610d6a565b60405180910390f35b61016e610640565b005b34801561017c57600080fd5b5061019760048036038101906101929190610c9f565b6108e1565b6040516101a49190610ce7565b60405180910390f35b3480156101b957600080fd5b506101c2610901565b6040516101cf9190610d85565b60405180910390f35b3480156101e457600080fd5b506101ed61092d565b6040516101fa9190610e5e565b60405180910390f35b600047905090565b60028060000160009054906101000a900473ffffffffffffffffffffffffffffffffffffffff16908060010154905082565b60056020528060005260406000206000915054906101000a900460ff1681565b600460000160009054906101000a900473ffffffffffffffffffffffffffffffffffffffff1673ffffffffffffffffffffffffffffffffffffffff163373ffffffffffffffffffffffffffffffffffffffff16146102f0576040517f08c379a00000000000000000000000000000000000000000000000000000000081526004016102e790610edd565b60405180910390fd5b803414610332576040517f08c379a000000000000000000000000000000000000000000000000000000000815260040161032990610f6f565b60405180910390fd5b60005b60018054905081101561042657600015156000806001848154811061035d5761035c610f8f565b5b9060005260206000200160009054906101000a900473ffffffffffffffffffffffffffffffffffffffff1673ffffffffffffffffffffffffffffffffffffffff1673ffffffffffffffffffffffffffffffffffffffff16815260200190815260200160002060009054906101000a900460ff1615151415610413576040517f08c379a000000000000000000000000000000000000000000000000000000000815260040161040a90611030565b60405180910390fd5b808061041e9061107f565b915050610335565b50600060643460026001015461043c91906110c8565b6104469190611151565b9050600160056000600260000160009054906101000a900473ffffffffffffffffffffffffffffffffffffffff1673ffffffffffffffffffffffffffffffffffffffff1673ffffffffffffffffffffffffffffffffffffffff16815260200190815260200160002060006101000a81548160ff021916908315150217905550600073ffffffffffffffffffffffffffffffffffffffff16600260000160009054906101000a900473ffffffffffffffffffffffffffffffffffffffff1673ffffffffffffffffffffffffffffffffffffffff16141561055a576040517f08c379a0000000000000000000000000000000000000000000000000000000008152600401610551906111f4565b60405180910390fd5b6105a36040518060600160405280602181526020016114726021913933600260000160009054906101000a900473ffffffffffffffffffffffffffffffffffffffff16846109bb565b600260000160009054906101000a900473ffffffffffffffffffffffffffffffffffffffff1673ffffffffffffffffffffffffffffffffffffffff166108fc829081150290604051600060405180830381858888f1935050505015801561060e573d6000803e3d6000fd5b505050565b6000600260000160009054906101000a900473ffffffffffffffffffffffffffffffffffffffff16905090565b600060018054905011610688576040517f08c379a000000000000000000000000000000000000000000000000000000000815260040161067f90611286565b60405180910390fd5b6106c76040518060400160405280600d81526020017f6d73672e73656e6465722069730000000000000000000000000000000000000081525033610a5d565b60005b6001805490508110156108a3576107546040518060400160405280601581526020017f76616c696461746f724164647265737365735b695d00000000000000000000008152506001838154811061072457610723610f8f565b5b9060005260206000200160009054906101000a900473ffffffffffffffffffffffffffffffffffffffff16610a5d565b6001818154811061076857610767610f8f565b5b9060005260206000200160009054906101000a900473ffffffffffffffffffffffffffffffffffffffff1673ffffffffffffffffffffffffffffffffffffffff163373ffffffffffffffffffffffffffffffffffffffff1614156108905760016000803373ffffffffffffffffffffffffffffffffffffffff1673ffffffffffffffffffffffffffffffffffffffff16815260200190815260200160002060006101000a81548160ff02191690831515021790555061088a6040518060600160405280602b8152602001611447602b91396000803373ffffffffffffffffffffffffffffffffffffffff1673ffffffffffffffffffffffffffffffffffffffff16815260200190815260200160002060009054906101000a900460ff16610af9565b506108df565b808061089b9061107f565b9150506106ca565b506040517f08c379a00000000000000000000000000000000000000000000000000000000081526004016108d6906112f2565b60405180910390fd5b565b60006020528060005260406000206000915054906101000a900460ff1681565b60048060000160009054906101000a900473ffffffffffffffffffffffffffffffffffffffff16905081565b606060018054806020026020016040519081016040528092919081815260200182805480156109b157602002820191906000526020600020905b8160009054906101000a900473ffffffffffffffffffffffffffffffffffffffff1673ffffffffffffffffffffffffffffffffffffffff1681526020019060010190808311610967575b5050505050905090565b610a57848484846040516024016109d5949392919061139a565b6040516020818303038152906040527f8ef3f399000000000000000000000000000000000000000000000000000000007bffffffffffffffffffffffffffffffffffffffffffffffffffffffff19166020820180517bffffffffffffffffffffffffffffffffffffffffffffffffffffffff8381831617835250505050610b95565b50505050565b610af58282604051602401610a739291906113e6565b6040516020818303038152906040527f319af333000000000000000000000000000000000000000000000000000000007bffffffffffffffffffffffffffffffffffffffffffffffffffffffff19166020820180517bffffffffffffffffffffffffffffffffffffffffffffffffffffffff8381831617835250505050610b95565b5050565b610b918282604051602401610b0f929190611416565b6040516020818303038152906040527fc3b55635000000000000000000000000000000000000000000000000000000007bffffffffffffffffffffffffffffffffffffffffffffffffffffffff19166020820180517bffffffffffffffffffffffffffffffffffffffffffffffffffffffff8381831617835250505050610b95565b5050565b60008151905060006a636f6e736f6c652e6c6f679050602083016000808483855afa5050505050565b6000819050919050565b610bd181610bbe565b82525050565b6000602082019050610bec6000830184610bc8565b92915050565b600073ffffffffffffffffffffffffffffffffffffffff82169050919050565b6000610c1d82610bf2565b9050919050565b610c2d81610c12565b82525050565b6000604082019050610c486000830185610c24565b610c556020830184610bc8565b9392505050565b600080fd5b6000610c6c82610bf2565b9050919050565b610c7c81610c61565b8114610c8757600080fd5b50565b600081359050610c9981610c73565b92915050565b600060208284031215610cb557610cb4610c5c565b5b6000610cc384828501610c8a565b91505092915050565b60008115159050919050565b610ce181610ccc565b82525050565b6000602082019050610cfc6000830184610cd8565b92915050565b610d0b81610bbe565b8114610d1657600080fd5b50565b600081359050610d2881610d02565b92915050565b600060208284031215610d4457610d43610c5c565b5b6000610d5284828501610d19565b91505092915050565b610d6481610c61565b82525050565b6000602082019050610d7f6000830184610d5b565b92915050565b6000602082019050610d9a6000830184610c24565b92915050565b600081519050919050565b600082825260208201905092915050565b6000819050602082019050919050565b610dd581610c61565b82525050565b6000610de78383610dcc565b60208301905092915050565b6000602082019050919050565b6000610e0b82610da0565b610e158185610dab565b9350610e2083610dbc565b8060005b83811015610e51578151610e388882610ddb565b9750610e4383610df3565b925050600181019050610e24565b5085935050505092915050565b60006020820190508181036000830152610e788184610e00565b905092915050565b600082825260208201905092915050565b7f596f75206172656e277420746865206f776e6572000000000000000000000000600082015250565b6000610ec7601483610e80565b9150610ed282610e91565b602082019050919050565b60006020820190508181036000830152610ef681610eba565b9050919050565b7f5468652065746865722073656e742073686f756c64206265207468652073616d60008201527f6520617320706172616d657465722073656e7421000000000000000000000000602082015250565b6000610f59603483610e80565b9150610f6482610efd565b604082019050919050565b60006020820190508181036000830152610f8881610f4c565b9050919050565b7f4e487b7100000000000000000000000000000000000000000000000000000000600052603260045260246000fd5b7f416c6c2076616c696461746f727320686176652079657420617070726f76652060008201527f74686520617373657473207472616e7366657200000000000000000000000000602082015250565b600061101a603383610e80565b915061102582610fbe565b604082019050919050565b600060208201905081810360008301526110498161100d565b9050919050565b7f4e487b7100000000000000000000000000000000000000000000000000000000600052601160045260246000fd5b600061108a82610bbe565b91507fffffffffffffffffffffffffffffffffffffffffffffffffffffffffffffffff8214156110bd576110bc611050565b5b600182019050919050565b60006110d382610bbe565b91506110de83610bbe565b9250817fffffffffffffffffffffffffffffffffffffffffffffffffffffffffffffffff048311821515161561111757611116611050565b5b828202905092915050565b7f4e487b7100000000000000000000000000000000000000000000000000000000600052601260045260246000fd5b600061115c82610bbe565b915061116783610bbe565b92508261117757611176611122565b5b828204905092915050565b7f42656e65666963696172792061646472657373206d757374206265206120766160008201527f6c69642061646472657373000000000000000000000000000000000000000000602082015250565b60006111de602b83610e80565b91506111e982611182565b604082019050919050565b6000602082019050818103600083015261120d816111d1565b9050919050565b7f56616c696461746f72206164647265737365732068617665206e6f742062656560008201527f6e20736574000000000000000000000000000000000000000000000000000000602082015250565b6000611270602583610e80565b915061127b82611214565b604082019050919050565b6000602082019050818103600083015261129f81611263565b9050919050565b7f596f75206172656e2774206f6e65206f66207468652076616c696461746f7273600082015250565b60006112dc602083610e80565b91506112e7826112a6565b602082019050919050565b6000602082019050818103600083015261130b816112cf565b9050919050565b600081519050919050565b60005b8381101561133b578082015181840152602081019050611320565b8381111561134a576000848401525b50505050565b6000601f19601f8301169050919050565b600061136c82611312565b6113768185610e80565b935061138681856020860161131d565b61138f81611350565b840191505092915050565b600060808201905081810360008301526113b48187611361565b90506113c36020830186610d5b565b6113d06040830185610d5b565b6113dd6060830184610bc8565b95945050505050565b600060408201905081810360008301526114008185611361565b905061140f6020830184610d5b565b9392505050565b600060408201905081810360008301526114308185611361565b905061143f6020830184610cd8565b939250505056fe617574686f72697a6564416464726573736573466f724d756c74695369675b6d73672e73656e6465725d205472616e7366657272696e672066726f6d20257320746f20257320257320776569a2646970667358221220138395cc94814b2526f60ccf69f5a8e7074d4c8ef3c2e884378cf1bb3960940e64736f6c63430008090033",
  "linkReferences": {},
  "deployedLinkReferences": {}
}