{
  "_format": "hh-sol-artifact-1",
  "contractName": "Will",
  "sourceName": "contracts/Will.sol",
  "abi": [
    {
      "inputs": [
        {
          "internalType": "address payable",
          "name": "_clientPubKey",
          "type": "address"
        },
        {
          "internalType": "address payable",
          "name": "_beneficiaryPubKey",
          "type": "address"
        },
        {
          "internalType": "uint256",
          "name": "_beneficiaryDistribution",
          "type": "uint256"
        }
      ],
      "stateMutability": "nonpayable",
      "type": "constructor"
    },
    {
      "inputs": [],
      "name": "beneficiary",
      "outputs": [
        {
          "internalType": "address payable",
          "name": "pubKey",
          "type": "address"
        },
        {
          "internalType": "uint256",
          "name": "distribution",
          "type": "uint256"
        }
      ],
      "stateMutability": "view",
      "type": "function"
    },
    {
      "inputs": [],
      "name": "client",
      "outputs": [
        {
          "internalType": "address payable",
          "name": "pubKey",
          "type": "address"
        },
        {
          "internalType": "address",
          "name": "privKey",
          "type": "address"
        }
      ],
      "stateMutability": "view",
      "type": "function"
    },
    {
      "inputs": [],
      "name": "distributeAssets",
      "outputs": [
        {
          "internalType": "bool",
          "name": "",
          "type": "bool"
        }
      ],
      "stateMutability": "payable",
      "type": "function"
    },
    {
      "inputs": [],
      "name": "getBeneficiary",
      "outputs": [
        {
          "internalType": "address",
          "name": "",
          "type": "address"
        }
      ],
      "stateMutability": "view",
      "type": "function"
    },
    {
      "inputs": [
        {
          "internalType": "address",
          "name": "",
          "type": "address"
        }
      ],
      "name": "isDistributed",
      "outputs": [
        {
          "internalType": "bool",
          "name": "",
          "type": "bool"
        }
      ],
      "stateMutability": "view",
      "type": "function"
    }
  ],
  "bytecode": "0x608060405234801561001057600080fd5b506040516107e53803806107e583398181016040528101906100329190610164565b82600260000160006101000a81548173ffffffffffffffffffffffffffffffffffffffff021916908373ffffffffffffffffffffffffffffffffffffffff160217905550816000800160006101000a81548173ffffffffffffffffffffffffffffffffffffffff021916908373ffffffffffffffffffffffffffffffffffffffff160217905550806000600101819055505050506101b7565b600080fd5b600073ffffffffffffffffffffffffffffffffffffffff82169050919050565b60006100fb826100d0565b9050919050565b61010b816100f0565b811461011657600080fd5b50565b60008151905061012881610102565b92915050565b6000819050919050565b6101418161012e565b811461014c57600080fd5b50565b60008151905061015e81610138565b92915050565b60008060006060848603121561017d5761017c6100cb565b5b600061018b86828701610119565b935050602061019c86828701610119565b92505060406101ad8682870161014f565b9150509250925092565b61061f806101c66000396000f3fe60806040526004361061004a5760003560e01c8063109e94cf1461004f578063256fc59a1461007b57806338af3eed146100995780633ebf6474146100c5578063565a2e2c14610102575b600080fd5b34801561005b57600080fd5b5061006461012d565b6040516100729291906103fe565b60405180910390f35b61008361017f565b6040516100909190610442565b60405180910390f35b3480156100a557600080fd5b506100ae61031e565b6040516100bc929190610476565b60405180910390f35b3480156100d157600080fd5b506100ec60048036038101906100e791906104d0565b610350565b6040516100f99190610442565b60405180910390f35b34801561010e57600080fd5b50610117610370565b60405161012491906104fd565b60405180910390f35b60028060000160009054906101000a900473ffffffffffffffffffffffffffffffffffffffff16908060010160009054906101000a900473ffffffffffffffffffffffffffffffffffffffff16905082565b6000803373ffffffffffffffffffffffffffffffffffffffff1631905060006064826000600101546101b19190610547565b6101bb91906105b8565b90506000800160009054906101000a900473ffffffffffffffffffffffffffffffffffffffff1673ffffffffffffffffffffffffffffffffffffffff166108fc829081150290604051600060405180830381858888f19350505050158015610227573d6000803e3d6000fd5b50600160046000600260000160009054906101000a900473ffffffffffffffffffffffffffffffffffffffff1673ffffffffffffffffffffffffffffffffffffffff1673ffffffffffffffffffffffffffffffffffffffff16815260200190815260200160002060006101000a81548160ff02191690831515021790555060046000600260000160009054906101000a900473ffffffffffffffffffffffffffffffffffffffff1673ffffffffffffffffffffffffffffffffffffffff1673ffffffffffffffffffffffffffffffffffffffff16815260200190815260200160002060009054906101000a900460ff169250505090565b60008060000160009054906101000a900473ffffffffffffffffffffffffffffffffffffffff16908060010154905082565b60046020528060005260406000206000915054906101000a900460ff1681565b60008060000160009054906101000a900473ffffffffffffffffffffffffffffffffffffffff16905090565b600073ffffffffffffffffffffffffffffffffffffffff82169050919050565b60006103c78261039c565b9050919050565b6103d7816103bc565b82525050565b60006103e88261039c565b9050919050565b6103f8816103dd565b82525050565b600060408201905061041360008301856103ce565b61042060208301846103ef565b9392505050565b60008115159050919050565b61043c81610427565b82525050565b60006020820190506104576000830184610433565b92915050565b6000819050919050565b6104708161045d565b82525050565b600060408201905061048b60008301856103ce565b6104986020830184610467565b9392505050565b600080fd5b6104ad816103dd565b81146104b857600080fd5b50565b6000813590506104ca816104a4565b92915050565b6000602082840312156104e6576104e561049f565b5b60006104f4848285016104bb565b91505092915050565b600060208201905061051260008301846103ef565b92915050565b7f4e487b7100000000000000000000000000000000000000000000000000000000600052601160045260246000fd5b60006105528261045d565b915061055d8361045d565b925082820261056b8161045d565b9150828204841483151761058257610581610518565b5b5092915050565b7f4e487b7100000000000000000000000000000000000000000000000000000000600052601260045260246000fd5b60006105c38261045d565b91506105ce8361045d565b9250826105de576105dd610589565b5b82820490509291505056fea26469706673582212207d8e7bec89554a18a59e59f99d05457a9387757a1ce8e21f68d521bf580dc98964736f6c63430008110033",
  "linkReferences": {},
  "deployedLinkReferences": {}
}