{
  "_format": "hh-sol-artifact-1",
  "contractName": "WimeSecure",
  "sourceName": "contracts/WimeSecure.sol",
  "abi": [
    {
      "inputs": [
        {
          "internalType": "string",
          "name": "_vaultPassword",
          "type": "string"
        },
        {
          "internalType": "address",
          "name": "_ownerPubKey",
          "type": "address"
        },
        {
          "internalType": "address",
          "name": "_clientPubKey",
          "type": "address"
        },
        {
          "internalType": "uint256",
          "name": "_clientIcNumber",
          "type": "uint256"
        },
        {
          "internalType": "address",
          "name": "_validatorPubKey",
          "type": "address"
        },
        {
          "internalType": "bool",
          "name": "_validatorIsAuthorized",
          "type": "bool"
        }
      ],
      "stateMutability": "nonpayable",
      "type": "constructor"
    },
    {
      "inputs": [],
      "name": "authorizeValidator",
      "outputs": [],
      "stateMutability": "nonpayable",
      "type": "function"
    },
    {
      "inputs": [],
      "name": "getOwnerAddress",
      "outputs": [
        {
          "internalType": "address",
          "name": "",
          "type": "address"
        }
      ],
      "stateMutability": "view",
      "type": "function"
    },
    {
      "inputs": [],
      "name": "getVaultPassword",
      "outputs": [
        {
          "internalType": "string",
          "name": "",
          "type": "string"
        }
      ],
      "stateMutability": "view",
      "type": "function"
    },
    {
      "inputs": [],
      "name": "isOwner",
      "outputs": [
        {
          "internalType": "bool",
          "name": "",
          "type": "bool"
        }
      ],
      "stateMutability": "view",
      "type": "function"
    },
    {
      "inputs": [],
      "name": "isValidatorAuthorized",
      "outputs": [
        {
          "internalType": "bool",
          "name": "",
          "type": "bool"
        }
      ],
      "stateMutability": "view",
      "type": "function"
    },
    {
      "inputs": [],
      "name": "requestProofOfDeath",
      "outputs": [
        {
          "internalType": "bool",
          "name": "",
          "type": "bool"
        }
      ],
      "stateMutability": "pure",
      "type": "function"
    },
    {
      "inputs": [],
      "name": "requestVaultPassword",
      "outputs": [
        {
          "internalType": "string",
          "name": "",
          "type": "string"
        }
      ],
      "stateMutability": "view",
      "type": "function"
    },
    {
      "inputs": [],
      "name": "vaultPassword",
      "outputs": [
        {
          "internalType": "string",
          "name": "",
          "type": "string"
        }
      ],
      "stateMutability": "view",
      "type": "function"
    },
    {
      "inputs": [],
      "name": "wimeAccessAPIEndpoint",
      "outputs": [
        {
          "internalType": "string",
          "name": "",
          "type": "string"
        }
      ],
      "stateMutability": "view",
      "type": "function"
    }
  ],
  "bytecode": "0x60806040523480156200001157600080fd5b5060405162000dea38038062000dea8339818101604052810190620000379190620003b8565b8560009081620000489190620006b4565b5084600260000160006101000a81548173ffffffffffffffffffffffffffffffffffffffff021916908373ffffffffffffffffffffffffffffffffffffffff16021790555083600360000160006101000a81548173ffffffffffffffffffffffffffffffffffffffff021916908373ffffffffffffffffffffffffffffffffffffffff1602179055508260036001018190555081600560000160006101000a81548173ffffffffffffffffffffffffffffffffffffffff021916908373ffffffffffffffffffffffffffffffffffffffff16021790555080600560000160146101000a81548160ff0219169083151502179055505050505050506200079b565b6000604051905090565b600080fd5b600080fd5b600080fd5b600080fd5b6000601f19601f8301169050919050565b7f4e487b7100000000000000000000000000000000000000000000000000000000600052604160045260246000fd5b620001b18262000166565b810181811067ffffffffffffffff82111715620001d357620001d262000177565b5b80604052505050565b6000620001e862000148565b9050620001f68282620001a6565b919050565b600067ffffffffffffffff82111562000219576200021862000177565b5b620002248262000166565b9050602081019050919050565b60005b838110156200025157808201518184015260208101905062000234565b60008484015250505050565b6000620002746200026e84620001fb565b620001dc565b90508281526020810184848401111562000293576200029262000161565b5b620002a084828562000231565b509392505050565b600082601f830112620002c057620002bf6200015c565b5b8151620002d28482602086016200025d565b91505092915050565b600073ffffffffffffffffffffffffffffffffffffffff82169050919050565b60006200030882620002db565b9050919050565b6200031a81620002fb565b81146200032657600080fd5b50565b6000815190506200033a816200030f565b92915050565b6000819050919050565b620003558162000340565b81146200036157600080fd5b50565b60008151905062000375816200034a565b92915050565b60008115159050919050565b62000392816200037b565b81146200039e57600080fd5b50565b600081519050620003b28162000387565b92915050565b60008060008060008060c08789031215620003d857620003d762000152565b5b600087015167ffffffffffffffff811115620003f957620003f862000157565b5b6200040789828a01620002a8565b96505060206200041a89828a0162000329565b95505060406200042d89828a0162000329565b94505060606200044089828a0162000364565b93505060806200045389828a0162000329565b92505060a06200046689828a01620003a1565b9150509295509295509295565b600081519050919050565b7f4e487b7100000000000000000000000000000000000000000000000000000000600052602260045260246000fd5b60006002820490506001821680620004c657607f821691505b602082108103620004dc57620004db6200047e565b5b50919050565b60008190508160005260206000209050919050565b60006020601f8301049050919050565b600082821b905092915050565b600060088302620005467fffffffffffffffffffffffffffffffffffffffffffffffffffffffffffffffff8262000507565b62000552868362000507565b95508019841693508086168417925050509392505050565b6000819050919050565b6000620005956200058f620005898462000340565b6200056a565b62000340565b9050919050565b6000819050919050565b620005b18362000574565b620005c9620005c0826200059c565b84845462000514565b825550505050565b600090565b620005e0620005d1565b620005ed818484620005a6565b505050565b5b81811015620006155762000609600082620005d6565b600181019050620005f3565b5050565b601f82111562000664576200062e81620004e2565b6200063984620004f7565b8101602085101562000649578190505b620006616200065885620004f7565b830182620005f2565b50505b505050565b600082821c905092915050565b6000620006896000198460080262000669565b1980831691505092915050565b6000620006a4838362000676565b9150826002028217905092915050565b620006bf8262000473565b67ffffffffffffffff811115620006db57620006da62000177565b5b620006e78254620004ad565b620006f482828562000619565b600060209050601f8311600181146200072c576000841562000717578287015190505b62000723858262000696565b86555062000793565b601f1984166200073c86620004e2565b60005b8281101562000766578489015182556001820191506020850194506020810190506200073f565b8683101562000786578489015162000782601f89168262000676565b8355505b6001600288020188555050505b505050505050565b61063f80620007ab6000396000f3fe608060405234801561001057600080fd5b50600436106100935760003560e01c80634dd6ecea116100665780634dd6ecea146101105780636a6fecda1461011a5780638f32d59b14610138578063ae38dac314610156578063da5cb2101461017457610093565b806305d55141146100985780630c4f65bd146100b6578063263a0c81146100d45780632c0be034146100f2575b600080fd5b6100a0610192565b6040516100ad91906104f5565b60405180910390f35b6100be610224565b6040516100cb9190610558565b60405180910390f35b6100dc610251565b6040516100e991906104f5565b60405180910390f35b6100fa6102df565b60405161010791906104f5565b60405180910390f35b610118610339565b005b610122610359565b60405161012f91906104f5565b60405180910390f35b6101406103e7565b60405161014d919061058e565b60405180910390f35b61015e610442565b60405161016b919061058e565b60405180910390f35b61017c61045c565b604051610189919061058e565b60405180910390f35b6060600080546101a1906105d8565b80601f01602080910402602001604051908101604052809291908181526020018280546101cd906105d8565b801561021a5780601f106101ef5761010080835404028352916020019161021a565b820191906000526020600020905b8154815290600101906020018083116101fd57829003601f168201915b5050505050905090565b6000600260000160009054906101000a900473ffffffffffffffffffffffffffffffffffffffff16905090565b6001805461025e906105d8565b80601f016020809104026020016040519081016040528092919081815260200182805461028a906105d8565b80156102d75780601f106102ac576101008083540402835291602001916102d7565b820191906000526020600020905b8154815290600101906020018083116102ba57829003601f168201915b505050505081565b60606102e961045c565b156102fd576102f6610192565b9050610336565b6040518060400160405280600581526020017f4572726f7200000000000000000000000000000000000000000000000000000081525090505b90565b6001600560000160146101000a81548160ff021916908315150217905550565b60008054610366906105d8565b80601f0160208091040260200160405190810160405280929190818152602001828054610392906105d8565b80156103df5780601f106103b4576101008083540402835291602001916103df565b820191906000526020600020905b8154815290600101906020018083116103c257829003601f168201915b505050505081565b6000600260000160009054906101000a900473ffffffffffffffffffffffffffffffffffffffff1673ffffffffffffffffffffffffffffffffffffffff163373ffffffffffffffffffffffffffffffffffffffff1614905090565b6000600560000160149054906101000a900460ff16905090565b60006001905090565b600081519050919050565b600082825260208201905092915050565b60005b8381101561049f578082015181840152602081019050610484565b60008484015250505050565b6000601f19601f8301169050919050565b60006104c782610465565b6104d18185610470565b93506104e1818560208601610481565b6104ea816104ab565b840191505092915050565b6000602082019050818103600083015261050f81846104bc565b905092915050565b600073ffffffffffffffffffffffffffffffffffffffff82169050919050565b600061054282610517565b9050919050565b61055281610537565b82525050565b600060208201905061056d6000830184610549565b92915050565b60008115159050919050565b61058881610573565b82525050565b60006020820190506105a3600083018461057f565b92915050565b7f4e487b7100000000000000000000000000000000000000000000000000000000600052602260045260246000fd5b600060028204905060018216806105f057607f821691505b602082108103610603576106026105a9565b5b5091905056fea26469706673582212203bd82872ea39acc43d2f623678e964ad3e1e07a9849bb7be80796f4cc444f48564736f6c63430008110033",
  "linkReferences": {},
  "deployedLinkReferences": {}
}